:020000040800F2
:100000006066002051030008717C0008D1310008AF
:100010006D7C0008B91F0008DBA800080000000084
:10002000000000000000000000000000B90200080D
:100030007523000800000000FD020008BD8F0008C5
:100040006B0300086B0300086B0300086B030008D8
:100050006B0300086B0300086B0300086B030008C8
:100060006B0300086B030008452400086B030008BD
:100070006B0300086B0300086B0300086B030008A8
:100080006B0300086B0300086B0300086B03000898
:100090006B0300086B0300086B0300086B03000888
:1000A0006B0300086B0300086B0300086B03000878
:1000B0006B0300086B030008ED9000086B03000859
:1000C0006B0300086B0300086B0300086B03000858
:1000D0006B0300088DA500086B03000815A6000837
:1000E0006B0300086B0300086B0300086B03000838
:1000F0006B0300086B0300086B0300086B03000828
:100100006B0300088D8700086B0300086B03000871
:100110006B0300086B0300086B03000825910008BF
:100120006B0300086B0300086B0300086B030008F7
:1001300000F002F800F0B0F80AA090E8000C824449
:100140008344AAF10107DA4501D100F0A5F8AFF226
:10015000090EBAE80F0013F0010F18BFFB1A43F0A5
:100160000103184754120100741201000A444FF0B1
:10017000000C10F8013B13F0070408BF10F8014B06
:100180001D1108BF10F8015B641E05D010F8016B4B
:10019000641E01F8016BF9D113F0080F1EBF10F8AF
:1001A000014BAD1C0C1B09D16D1E58BF01F801CBD2
:1001B000FAD505E014F8016B01F8016B6D1EF9D555
:1001C0009142D6D37047000000230024002500266A
:1001D000103A28BF78C1FBD8520728BF30C148BFAA
:1001E0000B6070476E2900F0FD83702900F0D1810B
:1001F00066290FF0928365290FF08F8367290FF02E
:100200008C836129AFF3008003681B0A28BF41F08B
:100210008001692900F04281642900F03F8175293D
:1002200000F03C816F2900F0F584782900F09D8171
:10023000E92900F08F84E42900F08C84F52900F08E
:100240008984EF2900F0F284F82900F09C8103688A
:10025000DB0928BF41F08001632900F0FE83732988
:1002600000F00384E32900F0A587F32900F0AA87B2
:10027000002070471FB500F0FFFF040000200021A0
:100280000EF072FB401C6060002000210EF056FB57
:10029000E0601FBD10B510BD00F0C0FF1146FFF7B4
:1002A000E9FF0AF0C7FC01F099F803B4FFF7F2FF89
:1002B00003BC0AF072FB0000224B19680868B0E822
:1002C000F00F80F30988BFF36F8F4FF0000080F3C9
:1002D00011884EF00D0E70470000000006480068BF
:1002E000006880F3088862B661B6BFF34F8FBFF332
:1002F0006F8F00DF00BF00BF08ED00E0EFF3098063
:10030000BFF36F8F0F4B1A6820E9F00F106008B52C
:100310004FF0500080F31188BFF34F8FBFF36F8F02
:100320000DF08AFA4FF0000080F31188BDE8084014
:1003300019680868B0E8F00F80F30988BFF36F8F81
:10034000704700BF1C010020EFF3058070470000DC
:100350000948804709480047FEE7FEE7FEE7FEE759
:10036000FEE7FEE7FEE7FEE7FEE7FEE70448054995
:10037000054A064B70470000CD8F00083101000888
:1003800060600020606600206062002060620020E3
:10039000704700001CB50C46064B7B446946009034
:1003A000204600F038FB04460020694600F046FB7A
:1003B00020461CBD9F0600000FB4044910B503AAD7
:1003C000029800F057FB10BC5DF814FB0001002000
:1003D0000FB41CB5084B06AA7B44694600900598EB
:1003E00000F019FB04460020694600F027FB204678
:1003F0001CBC5DF814FB00006106000070B50446EB
:1004000085690068C10601D5302600E02026C007B6
:1004100007D070BDD4E9012130469047206A401CC6
:1004200020626D1EF6D570BD70B5044685690078F2
:10043000C00707D170BDD4E9012120209047206A70
:10044000401C20626D1EF6D570BD70B50C46054689
:10045000012A05D02878800600D5EA69002302E049
:10046000012305E05B1C934202D2E05C0028F9D135
:10047000A869E618C01AA861286A184428622846A4
:10048000FFF7BCFF04E0D5E9012114F8010B904708
:10049000B442F8D32846FFF7C7FF70BD2DE9F041FD
:1004A0000646002410687529314616A510D000F0C4
:1004B0002EFA002802DA404213A507E031688A07C5
:1004C00001D512A502E0490704D511A5012401E0D8
:1004D00000F026FA00210A2206F1240709E0B0FB09
:1004E000F2FCB0FBF2F302FB1C00303078541846EB
:1004F000491C0028F3D123462A463046BDE8F04186
:1005000000F017BA000000002D0000002B000000D2
:1005100020000000F0B40D460188090502D5214CE9
:100520007C4402E01F4C7C440E34002100F1240680
:1005300008E002F00F071209E75D42EA03721B09A7
:100540007754491C52EA0307F3D1027800231207BB
:1005500004D5702D06D009B1022311342246F0BC17
:1005600000F0E7B901231034F8E770B504460D46F2
:100570002146106800F0D4F9024629462046BDE81D
:1005800070400023C6E7D21D22F00703D3E9002301
:10059000C0E70368126843F0200303600823C361C7
:1005A0000023B7E7940C01002DE9F05F894604466B
:1005B0004FF0000ADFF874B1FB44C0F820A02046D9
:1005C000E1688847002874D0252806D0D4E90121A5
:1005D0009047206A401C2062F1E700265F462046D3
:1005E000E16888472028054607DB312D05D27819B8
:1005F00010F8200C08B10643F1E7B00701D526F04A
:100600000406C4F81CA00027C4F818A02A2D09D09D
:1006100028460AF0BBF938B304EB8708303DC8F828
:10062000185019E059F8041B204604EB8702916129
:10063000E1688847012F054618D1E069002820DAD3
:1006400026F020061DE0D8F8180000EB800005EB2E
:1006500040003038C8F818002046E1688847054651
:100660000AF094F90028EED1012F0AD02E2D08D1DE
:100670002046E16888477F1C0546022F46F0200689
:10068000C4DBA069002803DA404246F00106A061FD
:10069000F00701D026F010066C2D0BD0682D09D084
:1006A0004C2D39D06A2D35D0742D35D07A2D33D0DC
:1006B00016E038E0E1682F4620468847B8420546F4
:1006C00009D16C2F26D04FF48060E16806432046A4
:1006D0008847054604E06C2F1AD04FF4807006431B
:1006E0000DB3A5F14100192802D8203546F4006663
:1006F0004A462946204626604E46FFF773FD80B1E4
:1007000001280BD0F61D26F0070000F1080956E776
:100710004020E4E78020D8E70020D6E706F104096E
:100720004DE7284652E7206ABDE8F09F240C0100FF
:1007300030B505460B462A4613F8014B12F8010B5B
:1007400008B1A042F8D01CB1002802D06D1CF1E71E
:10075000284630BD10B5431C02E010F8011B71B1F2
:100760008107FAD14FF0013202C88C1A8C4314EA87
:10077000C211F9D0C01A0A0603D0C01E10BDC01A9B
:1007800010BD0A0401D0801E10BD0902FCD0401E1D
:1007900010BD032A40F2308010F0030C00F01580E9
:1007A00011F8013BBCF1020F624498BF11F801CB74
:1007B00000F8013B38BF11F8013BA2F1040298BFD9
:1007C00000F801CB38BF00F8013B11F0030300F043
:1007D0003782083AC0F0088051F8043B083A51F8D3
:1007E00004CBA0E80810F5E7121D5CBF51F8043BEC
:1007F00040F8043BAFF30080D20724BF11F8013B5F
:1008000011F801CB48BF11F8012B24BF00F8013BC0
:1008100000F801CB48BF00F8012B704702F0FF033E
:1008200043EA032242EA024200F002B84FF000021B
:100830000429C0F0128010F0030C00F03582CCF1D6
:10084000040CBCF1020F18BF00F8012BA8BF20F860
:10085000022BA1EB0C0100F027BA5FEAC17C24BF98
:1008600000F8012B00F8012B48BF00F8012B70475E
:100870004FF0013C50F8042B51F8043B9A4221D12F
:10088000A2EB0C03934313EACC1317D150F8042BBB
:1008900051F8043B9A4215D1A2EB0C03934313EA9F
:1008A000CC130BD150F8042B51F8043B9A4209D1D8
:1008B000A2EB0C03934313EACC13DBD04FF0000000
:1008C000704700BFD01A01BAB1FA81F101F01801E6
:1008D00022FA01F0CB40C1F12001DBB2C0B2C01A54
:1008E0002CFA01F3D11A914311EAC311E6D17047F2
:1008F000704770477047704710B500F0FBF900680B
:1009000010BD10B5044600F0F5F9046010BD09688B
:100910004A0501D540B27047C905FCD500B2704701
:1009200009684A0501D5C0B27047C905FCD580B237
:1009300070472DE9F0470D4699469246044600F16E
:1009400024080168880604D5E06921F010012160BF
:1009500000E00120A84201DD471B00E00027A1695B
:100960007A1902EB0900081AA0612078C00602D4A7
:100970002046FFF743FD002608E0D4E901211AF8DC
:1009800006009047206A401C761C20624E45F4DB2E
:100990002078C0060AD52046FFF730FD06E0D4E9EE
:1009A000012130209047206A401C2062381EA7F1A8
:1009B0000107F4DC07E0D4E9012118F805009047AD
:1009C000206A401C2062281EA5F10105F3DC2046A8
:1009D000FFF72AFD2078000602D50220BDE8F08747
:1009E0000120FBE711680268006A530501D5087011
:1009F0000AE0D30501D5088006E0130603D5C21727
:100A0000C1E9000200E008600120704701694A1C4A
:100A100002610878704700B58FB0CDE9013100213F
:100A2000059105497944CDE9031011466846FFF761
:100A3000BBFD0FB000BD0000E5FFFFFF0A6802F834
:100A4000010B0A60704710B5436913B1AFF3008022
:100A500001E0FFF7FAFC012010BD127800F124013B
:100A60000A7000224A700122EDE711684FF0FF3250
:100A7000E9E70000074B70B50D467B44FFF7CBFF5D
:100A80000446284600F0A2FB10B14FF0FF3070BDC5
:100A9000204670BD9BA100002DE9FF5F15468A46E8
:100AA0000446DFF8AC80F8440027D8E900103E4641
:100AB000CDE9001010E03AF816106A4602A800F0DE
:100AC00089FB411C07D02178890603D5E2693918D2
:100AD00091420DD80744761C2078800602D5E06943
:100AE000B84205DDAE42E6DB3AF816000028E2D156
:100AF000A069C01BA0612046FFF780FCD8E9001068
:100B0000CDE90010002017E03AF818106A4602A854
:100B100000F060FBB0F1FF3F81460BD000250DF1E6
:100B2000080B05E0D4E901211BF8050090476D1C76
:100B30004D45F7D308F10100B0428046E4DB206A5E
:100B4000384420622046FFF76FFCBDE8FF9F00009D
:100B50004A0701002DE9F0418046D21D22F007022C
:100B60000025D2E90002F52915A614D0011E72F164
:100B7000000106DA0023D0EB030063EB020211A6AA
:100B800008E0D8F800108B0701D50FA602E049074E
:100B900001D50EA601251146002408F1240704E022
:100BA00000F0ACF830323A55641C50EA0102F7D13B
:100BB0002B46324621464046BDE8F041FFF7B9BE1C
:100BC000000000002D0000002B00000020000000AD
:100BD00030B4002100F1240408E002F00705D20837
:100BE000303542EA4372DB086554491C52EA03057A
:100BF000F3D10468002310A2250708D504F02004CF
:100C00000C4304D0C46901230CA2641EC46130BC2F
:100C1000FFF78FBE10B5044621461068FFF780FE2F
:100C200002462046BDE810400023D1E7D21D22F045
:100C30000701D1E90023CBE70000000030000000ED
:100C400010B5203AC0F00B80B1E81850203AA0E867
:100C50001850B1E81850A0E81850BFF4F5AF5FEA9B
:100C6000027C24BFB1E81850A0E8185044BF18C94E
:100C700018C0BDE810405FEA827C24BF51F8043BF5
:100C800040F8043B08BF7047D20728BF31F8023B49
:100C900048BF11F8012B28BF20F8023B48BF00F8DD
:100CA000012B70474FF0000200B51346944696465C
:100CB000203922BFA0E80C50A0E80C50B1F120016F
:100CC000BFF4F7AF090728BFA0E80C5048BF0CC01D
:100CD0005DF804EB890028BF40F8042B08BF70477B
:100CE00048BF20F8022B11F0804F18BF00F8012BED
:100CF0007047000000487047FC5F002030B5B0F13D
:100D00000A024FEA900E71F100034EEA817EB0EBC9
:100D10000E0061EB91014FEA101E4EEA017E10EBCE
:100D20000E0041EB11114FEA102E4EEA016E10EB4E
:100D30000E0041EB11214FEA104E4EEA014E10EB2E
:100D40000E0041EB1141401841F100014FEAD00083
:100D500040EA41704FEAD10110EB80054FEA81046F
:100D600044EA907444EB01046D1944EB0404521BF3
:100D7000A3414FF0000348BF0A3200D530BD401CEC
:100D800041F1000130BD70472DE9FF4F0C461E4672
:100D90004FF0FF378BB0D2E90001DDF860800A9098
:100DA0008A46C1F30A5505B93D46002108464FF071
:100DB0000000BAF1000F00F4400005DA00EB8000FB
:100DC0004FF4400101EA50004FEA9059B9F1010F88
:100DD00000DDB9460A9850EA4A000ED044F6105099
:100DE000A5F2FF3545432F14B8F1000F1ED0754210
:100DF000291E1EDDC9F100021CE0B8F1010F4FF001
:100E0000000001D0302103E0F24305E02154401CF2
:100E1000B042FBDB30460022002121540B99C1F87F
:100E20000880C1E900200FB0BDE8F08FBD1B6D1C2C
:100E3000DEE74A4600DA694206A800F061FA06AB2E
:100E400093E8070003AB83E8070050460A9900F0D7
:100E5000CBFA8DE80700A0F500501F3800900398EA
:100E6000002D09DD42F21F014A46084403A9039000
:100E7000684600F02AFD08E0A0F500504A461F38F9
:100E800003A90390684600F034FD8DE807000004D4
:100E9000000C03D04FF0FF30410800E01046B8F1DD
:100EA000000F03D00022009215461EE0751E05D4E7
:100EB000FFF724FF303262556D1EF9D5B34601228B
:100EC000084302D000227F1C04E02078302801D1A2
:100ED00000227F1E002A099786D01DE0112D07DA17
:100EE000FFF70CFF303262556D1C50EA0102F5D15C
:100EF000084302D00098C8B10EE00021681E05E04A
:100F0000235C625C63542254401E491C8142F7DB1F
:100F1000AB46A81B401E0990002004F80B000B985C
:100F2000099AC0F80880C0E9002B7CE711264FF031
:100F3000000859E72DE9F04F88460446D21D22F0FB
:100F4000070191B0D1E90001CDE90A0109F00AFDDC
:100F500002460B98C00F01D02D2007E020688107C2
:100F600001D52B2002E0202101EAC000032A0990CC
:100F700001D0072A05DB03464146204600F080F9F0
:100F80000BE12078800601D5E06900E00620B8F189
:100F9000650F814606D0B8F1660F18D0B8F1670F1B
:100FA00070D131E00020B9F1110F009001DB112365
:100FB00001E009F101030AAA01A90CA8FFF7E4FE68
:100FC000DDE90C70002609F10105834647E00120A8
:100FD0004B4600904FF000470AAA01A90CA8FFF762
:100FE000D3FEDDE90DB00C995D46002610B909F17C
:100FF00001000D18B9EB050003D4C0F1FF3609F16B
:101000000105A5EB09002BE0B9F1010F01DA4FF062
:1010100001090020B9F1110F0090484601DD1123AC
:1010200000E003460AAA01A90CA8FFF7ADFEDDE91E
:101030000C704D4600268346207800070AD4AB4545
:1010400000DA5D4601A8012D04DD411911F8011CEB
:10105000302907D04F4502DA17F1040F04DA0120D6
:1010600082460FE06D1EEEE7002F02DCED1B3E44D2
:1010700003E0781CA84200DD7D1CB81B00F1010ACA
:101080004FF000472078000703D4AA4501DB4FF05A
:10109000FF3A0021B7F1004F0DF143088DF84310DE
:1010A00024D002202B23002F01DA7F422D230A2196
:1010B000021EA0F1010000DC5FB197FBF1FC97FB81
:1010C000F1F201FB1C7C17460CF1300C08F801CD45
:1010D000EEE7A8F1010003702188090501D545213B
:1010E00000E06521A0F1010800F8011C09980FA992
:1010F000A1EB0807FF1D00B10120411901EBEA70C7
:10110000A1693844081A401EA0612078C00602D4A4
:101110002046FFF773F9099828B1D4E901219047D7
:10112000206A401C20622078C00622D52046FFF7A6
:1011300065F91EE0002E04DBB34502DD01A8805DE9
:1011400000E03020D4E901219047206A401C206251
:10115000761CAAF101005FEA000A0AD100F08CF8BF
:10116000C0680168405CD4E901219047206A401CB6
:101170002062281EA5F10105DCDC07E0D4E901218D
:1011800018F8010B9047206A401C2062381EA7F116
:101190000107F3DC2046FFF747F9032011B043E6CF
:1011A00010B5436913B1AFF3008001E0FFF774FCA1
:1011B000012010BD128800F1240182840022C28423
:1011C0000122EDE711684FF0FF32E9E7007B00F004
:1011D0008000704770B516460C46054600F044F88E
:1011E000036893F80101012806D0FF2C0FD8185D81
:1011F00068B101202C7070BDD3F80701324621463A
:1012000003F2071303442846BDE8704018474FF027
:10121000FF3070BD00487047FC5F00207546FFF747
:10122000F9FFAE4605006946534620F007008546A3
:1012300018B020B5FFF79AF8BDE820404FF000063F
:101240004FF000074FF000084FF0000B21F00701AE
:10125000AC46ACE8C009ACE8C009ACE8C009ACE8F1
:10126000C0098D467047000010B500F005F8001D5C
:1012700010BD00BFF5D60000004870471C6000207C
:101280002DE9F0411F46044603260168072A01F4B0
:10129000006004DB08B116A505E016A503E008B15F
:1012A00015A500E015A521F010002060A069C01E62
:1012B000A0610FB1401EA0612046FFF79FF84FB11B
:1012C000D4E9012138469047206A401C2062C01CA6
:1012D000206206E0206AFAE7D4E9012115F8010B43
:1012E0009047761EF8D22046FFF79EF8BDE8F081C1
:1012F0004E414E006E616E00494E4600696E6600BA
:101300002DE9F047814616468AB0334878440DC827
:101310008DE80D0030487844801C03AC0DC884E88B
:101320000D0041F69B300844372190FBF1F290FB11
:10133000F1F5A5F1800501FB12041B3C02D56442C6
:10134000012000E00020DFF890A080460027FA444A
:10135000AAF1BE0A0DE0E00709D03246684607EB65
:1013600047010AEB810100F0C4FA8DE80700641020
:101370007F1C002CEFD1184F7F44AC3F18E0E807EA
:1013800014D007EB04100DF1180A90E80E008AE85B
:101390000E00C068F04201D198190890324606A9A3
:1013A00003A800F0A6FA03AB83E807006D10641CE5
:1013B000002DE4D132466946B8F1000F03A802D0EF
:1013C00000F083FA01E000F094FAC9E90001C9F8DD
:1013D00008200AB0BDE8F08768FF00000446AFF3BC
:1013E00000802046FEF761FF5FEA400C08BF91F0E5
:1013F000000F4FEA8C234FEAC12243EA51514FEAD2
:101400001C5018BF00F5F0404FEA300018BF41F003
:1014100000415FEA6C5C00F02980BCF1FF3F08BF2F
:1014200040F080407047130C06BF12044FF0100CC0
:101430004FF0000C130E04BF12020CF1080C130F36
:1014400004BF12010CF1040C930F04BF92000CF1C5
:10145000020CD30F04BF52000CF1010C11464FF0E7
:101460000002A0F11F00A0EB0C00704711F0004F2C
:1014700008BF704731F000413FF4D5AF0B0C06BFF9
:1014800009044FF0100C4FF0000C0B0E04BF0902C2
:101490000CF1080C0B0F04BF09010CF1040C8B0FAD
:1014A00004BF89000CF1020CCB0F04BF49000CF102
:1014B000010CCCF12003A0EB0C0022FA03F302FA9A
:1014C0000CF241EA030100F10100704720F07F4C6B
:1014D00080EA030023F07F47ACEB070303F57C535E
:1014E00000F0004003F1FF032DE980494FEA154B5E
:1014F00009B44FEA144325EA0B4E24EA03480FF2DD
:10150000042606EB132749083E785FEA320203FB04
:101510000667C7F5000707FB06F64FEA54374FEAA0
:10152000D64606F1020607FB066CCCF1005C4FEADA
:101530001C472CEA074C07FB06F40CFB06F504EBF2
:1015400015464FEA961634BF00204FF000404FEA90
:10155000D13706FB07FC4FEA1C4C0CFB0BF7D21BE8
:1015600003FB0CF761EB07010CFB0EF7B0EB074038
:1015700072EB17420CFB08F734BFA2EB0742B2EB49
:10158000074261EB17414FEA0C444FEA910706FB13
:1015900007FC4FEA1C4C0CFB0BF7B0EBC74072EB9F
:1015A000573203FB0CF734BFA2EBC742B2EBC74282
:1015B00061EB57310CFB0EF7B0EBC70072EB5772C3
:1015C0000CFB08F734BFA2EBC702B2EBC70261EB1A
:1015D0005771039F4FEA816141EA921104EBCC04F9
:1015E0004FEAD1374FEA826206FB07FC42EA9012CB
:1015F0004FEA80604FEA1C4C0CFB0BF7D21B03FB3D
:101600000CF761EB07010CFB0EF7B0EB074072EB38
:1016100017420CFB08F734BFA2EB0742B2EB0742BC
:1016200061EB17414FEA8C554FEA910704EB9C247C
:1016300006FB07FC4FEA1C4C0CFB0BF7B0EBC7405A
:1016400072EB573203FB0CF734BFA2EBC742B2EB8D
:10165000C74261EB57310CFB0EF7B0EBC70072EBE2
:1016600057720CFB08F734BFA2EBC702B2EBC702FC
:1016700061EB577115EB4C254FEA816141EA9211FC
:101680004FEA82624FEAD13742EA901206FB07FC2A
:1016900044F100044FEA80604FEA1C4C0CFB0BF74E
:1016A000D21B03FB0CF761EB07010CFB0EF7B0EB51
:1016B000074072EB17420CFB08F734BFA2EB07425E
:1016C000B2EB074261EB174115EB1C154FEA813174
:1016D00041EA92414FEA823242EA90424FEA803038
:1016E0004FEA0C7644F1000448EA03434EEA0B4803
:1016F0004FF0000EB2EB080C71EB030724BF6246FB
:1017000039464EEB0E0E4FF0000B00185241494186
:101710004BEB0B0BB2EB080C71EB03077BF1000BEF
:1017200024BF624639464EEB0E0E4FF0000B0018F8
:10173000524149414BEB0B0BB2EB080C71EB030729
:101740007BF1000B24BF624639464EEB0E0E51EA88
:10175000020718BF46F0010616EB0E7655F100029F
:1017600054F1000103D5BDE88901BDE80088BDE85A
:101770008901BDE80048B619524141EB0101A3F1CE
:101780000103704780807F7E7D7C7B7A79787776D5
:1017900076757473727171706F6E6E6D6C6C6B6A4E
:1017A0006A696868676666656464636362616160EC
:1017B000605F5F5E5E5D5D5C5C5B5B5A5A59595869
:1017C00058575756565555555454535352525251D3
:1017D000515050504F4F4F4E4E4D4D4D4C4C4C4B29
:1017E0004B4B4A4A4A494949484848474747474670
:1017F00046464545454444444443434343424242AC
:1018000042414141002B26D4770021D01CB54FEA3C
:10181000370703B44FF010004FF010014FF00000F5
:101820000FBCBDE810400BF1010BBBF1010F08BF6D
:101830005FEA170722BF12F1010211F101014FF017
:10184000004143F1000300F0004043EA000070470C
:10185000F9D35708DAE746EA064613F1400F4FEA94
:1018600016461FDD13F1200FDFBF16430A46002185
:1018700020335B42C8D0C3F1200746EA064602FA8D
:1018800007F74FEA164646EA0706C3F1200722FA91
:1018900003F201FA07F721FA03F14FF0000342EADD
:1018A0000702B1E746EA020646EA06464FEA16464E
:1018B00046EA0106BCBF46EA0646360C4FF0000376
:1018C0004FF000024FF000019EE72DE9C04893461B
:1018D00030B491E8380007C831EA400C48BF34EA18
:1018E000430C03D5FFF7F2FDFFF78CFFF0BCBDE81A
:1018F00000882DE9C048934630B491E8380007C805
:1019000010F0804F08BF13F0804F03D100F005F8AE
:10191000FFF778FFF0BCBDE8008820F07F4780EA41
:10192000030023F07F4C07EB0C03A3F57C5300F07E
:101930000040A3F1FE0392F0000F00F0B38095F099
:10194000000F00F077802DE901494FEA11404FEA7E
:10195000144621EA004800FB06FC24EA064708FB7F
:1019600006F607FB08F800FB07F718EB06484CEBF8
:10197000164C4FEA124B18EB07484FEA15464CEB52
:10198000174022EA0B4E0BFB06FC25EA06470EFB2E
:1019900006F607FB0EFE0BFB07F71EEB064E4CEBA5
:1019A000164C4FF000061EEB074E4CEB174B18EB96
:1019B0000B0840F1000018EB0E0B58EB000840F14B
:1019C00000008F1A4FF000013CBFC943661B14BFD3
:1019D000B5EB040C00213CBFC943F61B4FEA17448A
:1019E0004EEA8E0E27EA04454FEA1C4704FB0762C5
:1019F0002CEA074C05FB07F70CFB05F604FB0CFC77
:101A000016EB074642EB174216EB0C4642EB1C4224
:101A10001BEB060658EB0202414146EA9E0601D541
:101A2000BDE80189B619524141EB0101A3F101035F
:101A3000BDE801894FEA14454FEA114724EA0546FB
:101A400021EA074C05FB07F406FB07F70CFB06F140
:101A500005FB0CFC11EB074144EB17444FEA12471E
:101A600011EB0C4144EB1C4422EA074C05FB07F246
:101A700006FB07F70CFB06F605FB0CFC16EB07460E
:101A800042EB174216EB0C4642EB1C456A1854F128
:101A9000000148BF7047B619524141EB0101A3F163
:101AA0000103704795F0000F37D04FEA11424FEA1B
:101AB000144721EA024624EA074C02FB07F106FB21
:101AC00007F70CFB06F402FB0CFC14EB074441EB9C
:101AD00017414FEA154714EB0C4441EB1C4125EA32
:101AE000074C02FB07F506FB07F70CFB06F602FBAB
:101AF0000CFC16EB074645EB174516EB0C4645EB81
:101B00001C42121951F1000148BF7047B6195241E9
:101B100041EB0101A3F1010370474FEA14454FEA7D
:101B2000114724EA054621EA074C05FB07F106FBAD
:101B300007F70CFB06F24FF0000605FB0CFC12EB5E
:101B4000074241EB174112EB0C4251EB1C4148BFDD
:101B50007047921841EB0101A3F1010370470000A7
:101B60002DE9F041074688460026374841680020A5
:101B70008847354890F8200000F08000002850D0B9
:101B800000244BE0002529E02F48818905EB8500E2
:101B900007EB0010503081421EDA2B48808905EB9C
:101BA000850107EB0111884216DD2748C18AC4EB85
:101BB000041008EB40001E3081420DDA2248C08A32
:101BC000C4EB041108EB4101884205DD04EB44003D
:101BD0002844401CC6B203E0681C85B2032DD3DB49
:101BE00000BFCEB119480078B04201D1002612E002
:101BF00016480078401EC2B200234146384600F025
:101C000027F8124806700078401EC2B201234146F0
:101C1000384600F01DF803E0601C84B2052CB1DBEF
:101C20000EE00A48007858B108480078401EC2B259
:101C300000234146384600F00BF8002003490870A5
:101C40003046BDE8F0810000A8000020F800002028
:101C50002DE9F84305460E4614469946032094FBA9
:101C6000F0F087B2032094FBF0F100FB11401FFA63
:101C700080F8102C01DDBDE8F883B9F1000F27D002
:101C8000012C25D04FF4FC60C7EB071C06EB4C0C75
:101C90000CF11C0C1FFA8CF308EB880C05EB0C1CE8
:101CA0000CF14E0C1FFA8CF2C7EB071C06EB4C0C28
:101CB0000CF1010C1FFA8CF108EB880C05EB0C1CE5
:101CC0000CF1010C00901FFA8CF001F0F5FE26E0FB
:101CD000012C24D04FF6FF70C7EB071C06EB4C0C11
:101CE0000CF11C0C1FFA8CF308EB880C05EB0C1C98
:101CF0000CF14E0C1FFA8CF2C7EB071C06EB4C0CD8
:101D00000CF1010C1FFA8CF108EB880C05EB0C1C94
:101D10000CF1010C00901FFA8CF001F0CDFE012CAB
:101D200013D050200A4B00901B6853F82420F31D59
:101D30004FF01E0C0CFB073399B208EB880305EB40
:101D4000031398B2102307F0EDF800BF93E70000EB
:101D5000F40000202DE9FE4305460C4617464FF4DB
:101D6000784047490880474807604FF6FF70009069
:101D700004F1960083B205F1F00082B221462846B4
:101D800001F09AFE04F1960083B205F1F00082B2F0
:101D90002146284601F068FD04F196018BB205F159
:101DA000A0018AB2503988B2214601F05DFD04F1EC
:101DB0003C0083B205F1F00082B204F11E0081B252
:101DC000284601F051FD04F1780083B205F1F000DE
:101DD00082B204F15A0081B2284601F045FD1F206D
:101DE00027490880002647E0012E24D1032096FBD6
:101DF000F0F1E01D1E2202FB01001FFA80F8032013
:101E000096FBF0F100FB116000EB800005EB001089
:101E1000801C1FFA80F9002110221A48006850F82F
:101E200026001E23CDE9012100905022414648465C
:101E300007F016F81EE0032096FBF0F1E01D1E22CD
:101E400002FB01001FFA80F8032096FBF0F100FB73
:101E5000116000EB800005EB00101FFA80F95020A4
:101E600000900848006850F8262010234146484654
:101E700007F058F8701C86B20F2EB5DBBDE8FE8364
:101E8000F0000020F400002010B501F0CBF910BDE7
:101E900070B506460C46154608E03046721C96B2F0
:101EA00000F007F804F8010B681E85B2002DF4D18C
:101EB00070BD70B50446002601F068FA2546E117AA
:101EC00004EB11610912A02202EB4101C8B201F03A
:101ED00023FA01F0A7FAE11704EB11610912A4EB50
:101EE0000121C8B201F018FA01F09CFA01F04EFA93
:101EF000A12001F011FA01F095FA002001F0D4F9C7
:101F0000064601F069FA304670BD70B505460C46CC
:101F1000164606E02178284600F009F8681C85B2CC
:101F2000641C3000A6F101018EB2F3D170BD70B512
:101F300004460E4601F02AFA2546E11704EB11612A
:101F40000912A02202EB4101C8B201F0E5F901F04B
:101F500069FAE11704EB11610912A4EB0121C8B27F
:101F600001F0DAF901F05EFA304601F0D5F901F03E
:101F700059FA01F031FA0A2008F034FD70BD000072
:101F800008B50121082006F0C1FA4FF48070ADF8C1
:101F9000000010208DF8030003208DF80200694630
:101FA000044800F095FD4FF48071024800F06DFE8A
:101FB00008BD0000000C014000BFFEE710B5052081
:101FC00008F030FD10BD000010B500200F4908607A
:101FD0000F48006820F0F0000D49086008460068CE
:101FE00040F030000860FFF7E9FF00200949C1F820
:101FF000A401FFF7E3FF012004490860FFF7DEFFBB
:1020000000200549C1F8840110BD000084812142EF
:10201000041C0140008023420080214208B50121B8
:10202000882006F073FA0220ADF8000010208DF829
:10203000030003208DF8020069460A4800F048FDBD
:102040000221084800F023FE4FF40070ADF80000B4
:102050006946054800F03CFD4FF40071024800F06D
:1020600016FE08BD000C0140001C014010B5002008
:102070000F4908600F48006820F0F0000D49086023
:102080000846006840F030000860FFF797FF012025
:102090000949C1F8A401FFF791FF01200449086034
:1020A000FFF78CFF00200549C1F8840110BD000036
:1020B00084812142041C014000802342008021428F
:1020C00070B5054600241648006820F0F000144959
:1020D00008600846006840F0800008601E2008F094
:1020E000A1FC002611E000200E490860FFF766FF02
:1020F00001200D49C1F884016006040E0B480068F8
:1021000008B1601CC4B2701CC6B2082EEBDB15B956
:10211000FFF7ACFF01E0FFF757FF204670BD00005E
:10212000041C0140848121420080214224812342F9
:1021300070B504461348006820F0F00011490860AB
:102140000846006840F03000086000200E49086032
:10215000FFF734FF002511E0E0090C490860600634
:10216000040E01200A49C1F88401FFF727FF00206F
:1021700005490860FFF722FF681CC5B2082DEBDB9C
:1021800070BD0000041C014084812142A4812342CF
:102190000080214210B50F48006820F0F0000D4982
:1021A00008600846006840F03000086001200A49D5
:1021B00008600A49C1F884011E2008F033FC0020A1
:1021C00005490860FFF7FAFE00200449C1F88401C0
:1021D00010BD0000041C0140A48123420080214264
:1021E00010B50D48006820F0F0000B490860084663
:1021F000006840F0300008600120084908601E2097
:1022000008F010FC00200649C1F8A401FFF7D6FE33
:1022100001200449086010BD041C01408481214252
:1022200000802342A481234210B500241348006893
:1022300020F0F000114908600846006840F0800076
:10224000086001200E4908600E49C1F88401FFF7BB
:10225000B5FE09E0601CC4B2FA2C03DDFFF7C0FF35
:10226000012010BDFFF7AAFE05488038006800284D
:10227000F0D10549086000BFF3E70000041C0140ED
:10228000A481234200802142848121422DE9F04132
:102290000746884615460421052000F02DF8002148
:1022A000012008F045FB80210A2006F04BFC0024A9
:1022B00005E0395D092008F03BFB601CC4B24445D1
:1022C000F7DB0321012008F033FBFF2400BF0520CA
:1022D00006F02EFA0646601EC4B21CB106F00400D9
:1022E0000028F4D0222006F023FA2870212006F0DE
:1022F0001FFA6870BDE8F08170B505460C462846A7
:1023000006F016FA064626EA0401284608F010FBF5
:1023100070BD000070B5044605E01548456B05F03A
:10232000450000B100E0F8E700BF042006F022FA03
:1023300020B1042006F018FA032070BD012006F039
:1023400019FA20B1012006F00FFA0120F5E708483C
:102350000069A04201D01020EFE740F2FF5004498D
:1023600088630846406908210840C0B2E5E70000DC
:10237000008001407047000046E0244800880028A3
:102380003FD023A12448FEF7D3F9F0B1012023491F
:10239000086000202249C1F89401322008F066FB51
:1023A00000201E49086001201D49C1F894011DA0AC
:1023B000FEF702F804211E4800680BF0A1FA4FF462
:1023C00016711548FEF732FA18E00120134908602B
:1023D00000201849C1F89401962008F047FB00201E
:1023E0000E49086001201349C1F8940112A0FDF7BD
:1023F000E3FF4FF416710848FEF718FA002003496E
:10240000088064200AF060FFB7E70000E2010020C6
:1024100031323334353600002B5B0020A08121425D
:1024200000002342BFAAC3C5B3C9B9A60D0A000064
:102430001400002000802142C3DCC2EBB4EDCEF3D7
:102440000D0A000038B5322008F010FB10210D48AD
:1024500000F012FC88B96A4601210B4800680BF0B5
:10246000C3FA04464CB1009838B14FF08050074988
:102470000860BFF34F8FBFF36F8F102000F008F894
:1024800038BD0000001801401400002004ED00E0F9
:1024900001490860704700001404014051B18200F6
:1024A000A2F1C042126842F001038200A2F1C042D0
:1024B000136009E08200A2F1C0421268034B1A4087
:1024C0008300A3F1C0431A6070470000FEFF0F00B5
:1024D000D0E901121143C2681143026911434269F4
:1024E000114382691143C2691143026A1143426A6E
:1024F0001143826A1143C26A1143026B114302689D
:102500009200A2F1C0421160816808290BD10168D4
:102510008900A1F1C041096841F0400201688900C9
:10252000A1F1C0410A60416B0968426B526841EAFF
:102530000211426B926841EA0221426B928941EAA0
:102540000241426B128A41EA0251426B127D41EA1A
:102550000261426B926911430268521C9200A2F11F
:10256000C0421160C16AB1F5804F1BD1816B09680F
:10257000826B526841EA0211826B926841EA022141
:10258000826B128A41EA0251826B127D41EA02613A
:10259000826B9269114302689200A2F1C042C2F8B4
:1025A000041107E06FF0704201688900A1F1C04199
:1025B000C1F80421704700001CB50121802005F0FE
:1025C000A5FF4FF40060ADF8000010208DF8030067
:1025D00003208DF8020069462D4800F079FA0221A7
:1025E0002B4800F054FB4FF48060ADF80000482009
:1025F0008DF803006946264800F06AFA4FF48061BE
:10260000234800F044FBFFF709FD00202149086042
:10261000142008F0E7F901201F49C1F8AC0132206D
:1026200008F0E0F900208DF80400012201A900F073
:1026300035F9012201A9A42000F030F916208DF807
:102640000400012201A9802000F028F90C208DF857
:102650000400012201A9882000F020F9022201A92A
:10266000A12000F021F89DF8040030280ED19DF83B
:10267000050003280AD19DF805009DF8042000EB11
:10268000022106A0FDF798FE00201CBD0120FCE7FA
:10269000001C0140AC81234200802342435450205F
:1026A00049443A25780D0A002DE9F04106460F46C7
:1026B0001546FFF76FFD7020FFF73AFDFFF7B4FDF9
:1026C000F0B2FFF735FDFFF7AFFDFFF763FD7120B7
:1026D000FFF72EFDFFF7A8FD00240BE0691EA142C5
:1026E00001D0012100E000210846FFF7E9FC385540
:1026F000601CC4B2AC42F1DBFFF772FDBDE8F081B3
:1027000071B581B00024002661480078401C604902
:102710000870084600780A2190FBF1F201FB1200D4
:1027200018B15B4800780A2867DA012201A9022063
:10273000FFF7BAFF9DF8040000F00F0000287ED0DC
:102740009DF8040000F00F00062878DA9DF80400D8
:1027500000F00F01FF208840C5B2E843C0B240F04E
:10276000C0004C4981F8200000245AE0494890F804
:1027700020000121A1400840F0B3474931F814007E
:1027800004226946FFF790FF424890F8300000F0BD
:102790000100C0B19DF801009DF8001001F00F018B
:1027A00000EB01203B49163121F814009DF803008D
:1027B0009DF8021001F00F0100EB012135480C30AB
:1027C00020F814101DE09DF801009DF8001001F0A4
:1027D0000F0100EB0120C0F5F07081B22D480C30E4
:1027E00020F814109DF803009DF8021001F00F016D
:1027F00000EB0121274801E011E020E0163020F82D
:1028000014109DF8000000F0F000802807D000218F
:102810002048163020F814100A3820F81410601CD4
:10282000C4B2052CA2DB01261A48808920B91948B8
:10283000C08A08B9002001900020154908709DF851
:10284000040000F01F00D0B9124890F8200000F0FA
:10285000800040B10F4890F8200020F080000D4922
:1028600081F820000BE04FF6FF700A498881C8828A
:10287000084690F8200000F0E00081F820000448AD
:102880000078F02802DD0A200149087030467CBD3E
:10289000A5000020A80000201EF900082DE9F04145
:1028A00005460E4617464FF00008FFF773FC7020F0
:1028B000FFF73EFCFFF7B8FCE8B2FFF739FCFFF783
:1028C000B3FC00240BE0305DFFF732FCFFF7ACFCFB
:1028D0008046B8F1000F00D003E0601CC4B2BC42D7
:1028E000F1DB00BFFFF77CFC4046BDE8F081000053
:1028F0002DE9FF4100246AA0006802900025A0464F
:1029000000260027CAE0AA210020FFF729F9054682
:10291000002D7DD0032D09DD0D2D07DA632E05DA9C
:1029200006EB860005EB4000C01E86B2042D03D1E5
:10293000312003A90855641C052D03D1322003A9B9
:102940000855641C062D03D1332003A90855641CC7
:10295000072D03D1342003A90855641C082D03D189
:10296000352003A90855641C092D03D1362003A97D
:102970000855641C0A2D03D1372003A90855641C8F
:102980000B2D03D1382003A90855641C0C2D03D14D
:10299000392003A90855641C0D2D10D10A2096FB7F
:1029A000F0F086B2202003A90855641E002C00DC3C
:1029B000002421463BA0FDF7FFFC4FF000080E2D40
:1029C0000BD1632E09DA06EB86004FF6FF7101EAA0
:1029D0004006302003A90855641C0F2D2BD1002779
:1029E0000BE003A8C05D02A9C95D884203D108F1CC
:1029F000010000F0FF08781CC7B2032FF1DBB8F12B
:102A0000030F0AD128A0FDF7D7FC4FF0000800E023
:102A100011E0012004B0BDE8F08126A0FDF7CCFC58
:102A200020208DF80C008DF80D008DF80E004FF071
:102A300000080020EEE754B921A010210B464FF406
:102A40008272CDE90010B121612004F0C1FF012C98
:102A50000AD11CA010210B464FF48272CDE9001060
:102A6000B121612004F0B4FF022C0AD116A010217C
:102A70000B464FF48272CDE90010B121612004F0C1
:102A8000A7FF032C0AD111A010210B464FF482722C
:102A9000CDE90010B121612004F09AFF33E7000076
:102AA0003232330025640000C3DCC2EBD5FDC8B769
:102AB00000000000C3DCC2EBB4EDCEF30000000068
:102AC000202020002A2020002A2A20002A2A2A004A
:102AD0002DE9F041024600250026002000230024B5
:102AE000002791F803C00CF00F0591F803C00CF01B
:102AF000100CBCF1000F03D091F802C04CEA0505A0
:102B000091F800C0BCF1000F31D0146800202BE018
:102B10004FF0010C0CFA00F3B1F800C00CEA030608
:102B20009E4220D183004FF00F0C0CFA03F7BC43F8
:102B300005FA03FC4CEA040491F803C0BCF1280F29
:102B400006D14FF0010C0CFA00FCC2F814C00AE0E8
:102B500091F803C0BCF1480F05D14FF0010C0CFAFD
:102B600000FCC2F810C0401C0828D1D31460B1F892
:102B700000C0BCF1FF0F34DD546800202EE000F1EE
:102B8000080C4FF0010808FA0CF3B1F800C00CEA89
:102B900003069E4221D183004FF00F0C0CFA03F77D
:102BA000BC4305FA03FC4CEA040491F803C0BCF1F1
:102BB000280F05D100F1080C08FA0CF8C2F81480AF
:102BC00091F803C0BCF1480F07D100F1080C4FF099
:102BD000010808FA0CF8C2F81080401C0828CED36F
:102BE0005460BDE8F0810000F0B50A4600230024DF
:102BF0000021002500F00046B6F1004F02D11D4E25
:102C0000F16901E01B4E7168C0F3034583B200F423
:102C10004016B6F5401F08D121F07061154E766858
:102C200026F07066134F7E6012E000F48016B6F551
:102C3000801F06D1032606FA05F4A14341F0706116
:102C400006E0460D360103FA06F6B14341F0706125
:102C500022B1460D360103FA06F6314300F0004674
:102C6000B6F1004F02D1034EF16101E0014E7160F7
:102C7000F0BD0000000001400246002093680B40B8
:102C80000BB1012000E000207047416170470161F5
:102C9000704700000EB50121802005F037FC4FF48D
:102CA0000060ADF8000010208DF8030003208DF8BF
:102CB000020069463A48FFF70BFF02213848FFF748
:102CC000E6FF4FF48060ADF8000048208DF8030067
:102CD00069463348FFF7FCFE4FF480613048FFF748
:102CE000D6FFFFF79BF900202E4908600A2007F065
:102CF00079FE01202C49C1F8AC010A2007F072FED0
:102D00004FF48060ADF8000028208DF8030069467C
:102D10002348FFF7DDFE4FF480612148FFF7B5FF40
:102D2000642007F05FFE042201A948F2401000F081
:102D300051F800208DF8080001A91CA0FDF73CFB0C
:102D40001DA101A8FDF794FD40BB02208DF80400F1
:102D5000012201A948F2400000F09CF9012201A9DA
:102D600048F2470000F036F89DF80400602807DAC2
:102D70009DF8041012A0FDF71FFB012000F05CF984
:102D80000A2007F02FFE00208DF80400012201A97F
:102D900048F2400000F07EF900200EBD0120FCE763
:102DA000001C0140AC812342008023424354502048
:102DB00049443A25730D0A003931343700000000C8
:102DC00044656661756C74205665723A25640D0A17
:102DD000000000002DE9F04105460F461646FFF7BA
:102DE000D9F92820FFF7A4F9FFF71EFA2812FFF7F8
:102DF0009FF9FFF719FAE8B2FFF79AF9FFF714FA0B
:102E0000FFF7C8F92920FFF793F9FFF70DFA00241F
:102E10000BE0711EA14201D0012100E00021084613
:102E2000FFF74EF93855601CC4B2B442F1DBFFF72E
:102E3000D7F9BDE8F081000071B583B00024002609
:102E400079480078401C78490870084600780A21C3
:102E500090FBF1F201FB120018B1734800780A28C8
:102E60007EDA012203A948F24E10FFF7B3FF9DF866
:102E70000C0000F0800068B19DF80C0000F00F001D
:102E8000062807DA00200190012201A948F24E101D
:102E900000F000F99DF80C0000F00F0000285FD052
:102EA0009DF80C0000F00F000628D9DA9DF80C0000
:102EB00000F00F01FF208840C0B201905B4890F8FD
:102EC00020509DF80400C043C0B240F0C0005749F4
:102ED00081F82000084681898182C18AC18300244B
:102EE00046E0524890F820000121A140084020B35C
:102EF0004F4931F81400042202A9FFF76BFF4B4839
:102F000090F8300000F00100C0B19DF808009DF875
:102F1000091000EB012081B24448163020F814104B
:102F20009DF80A009DF80B1000EB0120C0F54870D9
:102F300081B23E480C3020F8141017E09DF80800CC
:102F40009DF8091000EB012081B238480C3020F8C0
:102F500014109DF80A009DF80B1000EB012000E012
:102F600036E081B23148163020F81410601CC4B22B
:102F7000052CB6DB01262D4880892E490988884218
:102F800005DC2A48C08A2B49498888421DDD9DF806
:102F90000C0000F00F0001280ADD2448C0892349F5
:102FA00088810846008BC88200201F4908700FE006
:102FB0001E48808A1D4988810846C08BC8828020AF
:102FC0000390084680F8205002E00020164908705F
:102FD0009DF80C0000F08F0080281AD1134890F85B
:102FE000200000F0800040B1104890F8200020F050
:102FF00080000E4981F820000BE04FF6FF700B496E
:103000008881C882084690F8200000F0E00081F82E
:10301000200005480078F02802DD0A2002490870E7
:10302000304604B070BD0000A6000020A8000020BB
:10303000E0F90008C805002038B505460024002046
:103040008DF800008DF8015000BF09E09DF80000E8
:103050000F49095D0844C0B28DF80000601CC4B27D
:10306000B82CF3D39DF80000C043401CC0B28DF8CB
:103070000000B822064948F2470000F00BF802228F
:10308000694648F2FF0000F005F8002038BD000056
:1030900028F900082DE9F04104460E4617464FF086
:1030A0000008FFF777F82820FFF742F8FFF7BCF891
:1030B0002012FFF73DF8FFF7B7F8E0B2FFF738F856
:1030C000FFF7B2F800250BE0705DFFF731F8FFF76E
:1030D000ABF88046B8F1000F00D003E0681CC5B221
:1030E000BD42F1DB00BFFFF77BF84046BDE8F08151
:1030F0002DE9F05F82460F4614462046E21704EBA6
:103100005272D2102146E31704EB5373DB10A4EB89
:10311000C3030BB1012300E000231A44624302F011
:10312000FF099AF800600AF1010082460578812EB5
:1031300005DB402D03DBFF2D01D0FF2E0DD14FF01D
:10314000000B06E0002007F8010B0BF1010000F076
:10315000FF0BCB45F6DBBDE8F09F7F2D03DAA5F131
:103160004000C5B202E0A5F14100C5B2A6F1810060
:10317000C6B2BE2000FB065000FB09F80C2C04D0A0
:10318000102C0CD0182C1ED113E01048D0F80900D8
:1031900000EB08014A46384607F0A2FB13E00B4853
:1031A000D0F8110000EB08014A46384607F098FBBA
:1031B00009E00648D0F8190000EB08014A463846F5
:1031C00007F08EFB00BF00BF00BFC4E7DB5F00203D
:1031D00000BFFEE710B500200F4908600F480068E7
:1031E00020F070400D4908600846006840F04050EB
:1031F000086000200A49C1F89C01022007F012FC77
:10320000012005490860022007F00CFC0020044959
:10321000C1F8980110BD000098812142000C0140C6
:103220000080214208B50121082005F06FF9C02077
:10323000ADF8000010208DF8030003208DF8020087
:1032400069460448FFF744FCC0210248FFF71FFD10
:1032500008BD0000000C014010B500200F490860B7
:103260000F48006820F070400D490860084600686B
:1032700040F04050086001200A49C1F89C0102203A
:1032800007F0D0FB012005490860022007F0CAFBC7
:1032900000200449C1F8980110BD00009881214226
:1032A000000C01400080214270B5054600241748FB
:1032B000006820F07040154908600846006840F03A
:1032C00000400860002616E0002011490860022036
:1032D00007F0A8FB01200F49C1F898016006040E11
:1032E0000B487C38006808B1601CC4B2012007F0AC
:1032F00099FB701CC6B2082EE6DB15B9FFF7ACFFD0
:1033000001E0FFF767FF204670BD0000000C0140A0
:10331000988121420080214270B504461848006817
:1033200020F07040164908600846006840F04050A0
:10333000086000201349086000251EE0E00920B164
:1033400001201049091D086003E000200D49091DF6
:1033500008606006040E022007F064FB01200949A2
:103360000860022007F05EFB00200749C1F89801C1
:10337000022007F057FB681CC5B2082DDEDB70BDCC
:10338000000C0140988121420080214210B50F4875
:10339000006820F070400D4908600846006840F061
:1033A0004050086001200A4908600A49C1F89801A4
:1033B000042007F037FB002005490860042007F0CF
:1033C00031FB00200349C1F8980110BD000C0140F9
:1033D0009C8121420080214210B50F48006820F0F6
:1033E00070400D4908600846006840F04050086091
:1033F00000200A4908600A49C1F89C01042007F02E
:1034000011FB0120054908600549C1F89C01042011
:1034100007F008FB10BD0000000C0140988121421C
:103420000080214210B500241448006820F070404C
:10343000124908600846006840F00040086001201A
:103440000F49086007F0EEFA01200E49C1F8980113
:1034500007F0E8FA07E0601CC4B2FA2C03DDFFF7BE
:10346000BBFF012010BD0648803800680028F2D15B
:103470000349091F086000BFF4E70000000C014089
:103480009C8121420080214208B50121442005F0A1
:103490003DF81820ADF8000048208DF8030069467B
:1034A0000648FFF715FB0120ADF8000028208DF835
:1034B000030069460248FFF70BFB08BD00180140F6
:1034C0000008014010B5044614B1012023490870DA
:1034D0002248007858B310212148FFF7CDFB50B1A6
:1034E00008211F48FFF7C8FB28B101211D48FFF73D
:1034F000C3FB01281BD10A2007F074FA00201749EA
:10350000087010211648FFF7B7FB08B9012010BD5D
:1035100008211348FFF7B0FB08B90220F7E70121A3
:103520001048FFF7A9FB012815D10320EFE7102170
:103530000B48FFF7A1FB01280DD108210848FFF730
:103540009BFB012807D101210648FFF795FB10B925
:103550000120024908700020D9E70000A4000020E3
:10356000001801400008014070B5044600261748C5
:103570000588408845431548808846F604018842FE
:1035800016D112488079012812D100200F49887184
:103590002A2048812B2088810021084604F066F803
:1035A00001200A4988712B2048812A20888103E064
:1035B0000021084604F05AF804F04AFA002602E016
:1035C00003480480761CAE42FAD370BDC8050020C3
:1035D0000008006C10B50446002C66D16C49887157
:1035E000F02008804FF4A07048800846808849F297
:1035F000413188420BD06648808846F604018842F3
:1036000005D06348808845F2103188421AD12C20B9
:103610005F4908812A2048812B20888108468088BC
:1036200046F60401884205D05948808845F2103199
:10363000884206D14FF4A070554908804FF4F070CD
:103640004880A1E05248808845F21051884210D14C
:103650004FF430504E4908814FF4285048814FF4C0
:103660002C5088814FF4F07008804FF448704880E7
:103670008AE04748808841F6631188420DD12C20AA
:10368000434908812B2048812A2088814FF4F0701B
:1036900008804FF44870488076E022203C49088139
:1036A00020204881212088816EE0012038498871DE
:1036B0004FF4A0700880F02048800846808849F2C6
:1036C0004131884205D03248808845F21031884225
:1036D00007D12C202E4908812A2048812B2088815F
:1036E0003FE02B48808846F60401884207D12C2011
:1036F000274908812B2048812A20888131E02448ED
:10370000808845F21051884210D14FF43050204942
:1037100008814FF4285048814FF42C5088814FF491
:10372000487008804FF4F07048801AE0184880888C
:1037300041F6631188420DD12C20154908812A20B9
:1037400048812B2088814FF4487008804FF4F07036
:10375000488006E022200E4908812120488120204F
:1037600088810B48808846F60401884205D00848C5
:10377000808845F21031884206D14FF4F070044938
:1037800008804FF4A0704880002003F0F9FD10BDC0
:10379000C80500202DE9FF4F84B081468A460020ED
:1037A000039002900698A0EB09050798A0EB0A0683
:1037B000CDF80490CDF800A0002D01DD012705E033
:1037C0000DB9002702E04FF0FF376D42002E02DDF9
:1037D0004FF0010806E016B94FF0000802E04FF084
:1037E000FF387642B54201DD2C4600E034464FF00A
:1037F000000B21E0009A91B2019A90B200F022F8F9
:103800000398284403900298304402900398A04201
:1038100005DD0398001B039001983844019002983D
:10382000A04205DD0298001B0290009840440090E1
:103830000BF101001FFA80FB601C8345DADD08B044
:10384000BDE8F08F30B504460D462946204603F00A
:103850000DFF04F0FDF8024800880249088030BDE1
:10386000F00000200008006CF0B504460D46164636
:103870001F462B46324629462046FFF78BFF3B4624
:10388000224629462046FFF785FF3B463246394609
:103890002046FFF77FFF3B46324629463046FFF77A
:1038A00079FFF0BD2DE9F04306460F46904600240F
:1038B00045460320A0EB48093CE07A1B91B232193F
:1038C00090B2FFF7BFFF3A1B91B2721990B2FFF7A7
:1038D000B9FF3A1991B2721990B2FFF7B3FF7A1992
:1038E00091B2321990B2FFF7ADFF7A1991B2321B43
:1038F00090B2FFF7A7FF3A1991B2721B90B2FFF78F
:10390000A1FF7A1B91B2321B90B2FFF79BFF3A1BCB
:1039100091B2721B90B2FFF795FF641CB9F1000FD2
:1039200003DAA000801D814404E0601B80000A309F
:1039300081446D1EAC42C0DDBDE8F08330B5034666
:103940000C4615465A48808849F24131884205D0D4
:103950005748808845F21031884214D1544948892B
:1039600004F070F8181204F067F8D8B204F064F8A4
:103970004F49888904F066F8201204F05DF8E0B23F
:1039800004F05AF88CE04A48808845F21051884289
:1039900020D14749488904F055F8181204F04CF832
:1039A00043494989491C88B204F04CF8D8B204F064
:1039B00043F83F49888904F045F8201204F03CF8A8
:1039C0003B498989491C88B204F03CF8E0B204F014
:1039D00033F865E03648808841F66311884228D183
:1039E0003348807920B932480088401EC01A83B21B
:1039F0002F49488904F026F8181204F01DF8D8B2AF
:103A000004F01AF8181204F017F8D8B204F014F8F9
:103A10002749888904F016F8201204F00DF8E0B266
:103A200004F00AF8201204F007F8E0B204F004F8F9
:103A300036E01F48808846F6040188421DD11C48A4
:103A40008079012804D11A480088401EC01A83B228
:103A50001749488903F0F6FF181203F0EDFFD8B2BA
:103A600003F0EAFF1249888903F0ECFF201203F00B
:103A7000E3FFE0B203F0E0FF12E00D488079012897
:103A800004D10B480088401EC01A83B208494889F7
:103A9000194603F0E7FF06498889214603F0E2FF53
:103AA0000348008903490880881C058030BD000058
:103AB000C8050020FE07006C2DE9FC4F05460E46A8
:103AC00017469846DDF82C90002001902748808802
:103AD00046F60401884229D124488079012825D15D
:103AE000AB46354621480088C01B401E86B247467B
:103AF0001E480088A0EB0B00401E1FFA80F8002033
:103B00001A4988712A2048812B20888143463A46E9
:103B100031462846CDF80090FFF7CEFF012013492B
:103B200088712B2048812A2088811CE0781B401C4A
:103B300080B20190344614E02146284603F096FDF9
:103B400003F086FF4FF0000A06E00948A0F8009055
:103B50000AF101001FFA80FA01988245F5DB601C2A
:103B600084B24445E8DDBDE8FC8F0000C8050020B4
:103B70000008006C00B59FB00121080204F096FC1B
:103B800001214FF4B47004F0C1FC0120ADF87800BD
:103B900010208DF87B0003208DF87A001EA9FE48C6
:103BA000FEF796FF4CF23370ADF8780018208DF8D0
:103BB0007B0003208DF87A001EA9F848FEF788FFE5
:103BC0004FF68070ADF8780018208DF87B00032048
:103BD0008DF87A001EA9F248FEF77AFF41F2010043
:103BE000ADF8780018208DF87B0003208DF87A005E
:103BF0001EA9EC48FEF76CFF0120089000200990F8
:103C00000F200A9000200B900C900D900E900190C8
:103C100002900320039000200490059006900790E6
:103C200006200F900020109011901020129000207C
:103C3000139015901490169017904FF48050189090
:103C4000002019904FF480401A9000201B9008A883
:103C50001C9001A81D900FA8FEF73AFC0121062038
:103C6000FEF71CFC322006F0BDFE002003F052FBE4
:103C7000CD49888008468088FF280ADB084680886E
:103C80004FF6FF71884204D0C7488088B0F5134FC3
:103C90007ED1D32003F0D6FE03F032FBC2498880E8
:103CA00003F02EFBC049888003F02AFBBE498880C0
:103CB000084680884FF6FF7101EA0020BA498880E3
:103CC00003F01EFBB84989880843B7498880084635
:103CD000808849F2413188425AD0BF2003F0B2FEB9
:103CE00003F00EFBB049888003F00AFBAE498880E0
:103CF00003F006FBAC49888003F002FBAA498880E8
:103D0000084680884FF6FF7101EA0020A6498880A6
:103D100003F0F6FAA44989880843A3498880084635
:103D2000808846F6040188427AD0D42003F08AFEC7
:103D300003F0E6FA9C49888003F0E2FA9A49888009
:103D400003F0DEFA98498880084680884FF6FF71B4
:103D500001EA00209449888003F0D2FA92498988C8
:103D60000843914988800846808845F2103188428E
:103D700056D04FF45A4003F065FE03F0C1FA8A4969
:103D800088804FF45B4003F05DFE03F0B9FA00E079
:103D900046E085498880084680884FF6FF7101EA31
:103DA0000020814988804FF45C4003F04BFE03F013
:103DB000A7FA7D49898808437B498880084680881E
:103DC000B0F5004F02D145F21050888076488088C7
:103DD00045F21051884223D0A12003F033FE03F0B6
:103DE0008FFA7149888003F08BFA6F498880084602
:103DF00080884FF6FF7101EA00206B49888003F04C
:103E00007FFA69498988084367498880084680881D
:103E100045F26171884203D141F66310624988809E
:103E20006148818861A0FCF7C7FA5F48808849F241
:103E3000413188427ED1CF2003F004FE002003F000
:103E4000FBFDC12003F0F8FD302003F0F5FDED206F
:103E500003F0F8FD642003F0EFFD032003F0ECFD18
:103E6000122003F0E9FD812003F0E6FDE82003F0D5
:103E7000E9FD852003F0E0FD102003F0DDFD7A2050
:103E800003F0DAFDCB2003F0DDFD392003F0D4FD93
:103E90002C2003F0D1FD002003F0CEFD342003F0F0
:103EA000CBFD022003F0C8FDF72003F0CBFD20205E
:103EB00003F0C2FDEA2003F0C5FD002003F0BCFDC5
:103EC000002003F0B9FDC02003F0BCFD1B2003F06F
:103ED000B3FDC12003F0B6FD012003F0ADFDC52008
:103EE00003F0B0FD302003F0A7FD302003F0A4FD67
:103EF000C72003F0A7FDB72003F09EFD362003F096
:103F0000A1FD482003F098FD3A2003F09BFD5520C9
:103F100003F092FDB12003F095FD002003F08CFD2D
:103F20001A2003F089FDB62003F08CFD0A2003F06F
:103F300083FD00E0AAE0A22003F07EFDF22003F062
:103F400081FD002003F078FD262003F07BFD012099
:103F500003F072FDE02003F075FD0F2003F06CFD0F
:103F60002A2003F069FD282003F066FD082003F0F5
:103F700063FD0E2003F060FD082003F05DFD54207A
:103F800003F05AFDA92003F057FD432003F054FD30
:103F90000A2003F051FD11E0000C01400014014023
:103FA0000018014000200140C8050020204C434477
:103FB0002049443A25780D0A000000000F2003F044
:103FC0003BFD002003F038FD002003F035FD00200C
:103FD00003F032FD002003F02FFDE12003F032FD5D
:103FE000002003F029FD152003F026FD172003F023
:103FF00023FD072003F020FD112003F01DFD062006
:1040000003F01AFD2B2003F017FD562003F014FDDA
:104010003C2003F011FD052003F00EFD102003F0FD
:104020000BFD0F2003F008FD3F2003F005FD3F20AE
:1040300003F002FD0F2003F0FFFC2B2003F002FD34
:10404000002003F0F9FC002003F0F6FC012003F04F
:10405000F3FC3F2003F0F0FC2A2003F0F3FC0020E7
:1040600003F0EAFC002003F0E7FC002003F0E4FC8E
:10407000EF2003F0E1FC112003F0E4FC782006F0CF
:10408000B1FC292003F0DEFC03F01DB9FE48808856
:1040900046F6040188427CD1112003F0D3FC1420A1
:1040A00006F0A0FCD02003F0CDFC072003F0C4FCF8
:1040B000422003F0C1FC1D2003F0BEFCD12003F020
:1040C000C1FC002003F0B8FC1A2003F0B5FC092065
:1040D00003F0B2FCD22003F0B5FC012003F0ACFCED
:1040E000222003F0A9FCC02003F0ACFC102003F058
:1040F000A3FC3B2003F0A0FC002003F09DFC022069
:1041000003F09AFC112003F097FCC52003F09AFC01
:10411000032003F091FCC82003F094FC002003F07E
:104120008BFC252003F088FC212003F085FC052072
:1041300003F082FC002003F07FFC0A2003F07CFCEB
:10414000652003F079FC252003F076FC772003F04E
:1041500073FC502003F070FC0F2003F06DFC002076
:1041600003F06AFCF82003F06DFC012003F064FC0E
:10417000FE2003F067FC002003F05EFC022003F049
:104180005BFC202003F05EFC362003F05BFC082083
:1041900000E02CE003F050FC3A2003F053FC5520E3
:1041A00003F04AFC2B2003F04DFC002003F044FCFC
:1041B000002003F041FC012003F03EFC3F2003F00F
:1041C0003BFC2A2003F03EFC002003F035FC0020DD
:1041D00003F032FC012003F02FFCDF2003F02CFC65
:1041E000782006F0FFFB292003F02CFC4CE7A648C2
:1041F000808845F21031884240F07C87ED2003F042
:1042000021FC012003F018FCFE2003F015FCEE2039
:1042100003F018FCDE2003F00FFC212003F00CFC5F
:10422000F12003F00FFC012003F006FCDF2003F077
:1042300009FC102003F000FCC42003F003FC8F20D5
:1042400003F0FAFBC62003F0FDFB002003F0F4FBB3
:10425000E22003F0F1FBE22003F0EEFBE22003F0AA
:10426000EBFBBF2003F0EEFBAA2003F0E5FBB02040
:1042700003F0E8FB0D2003F0DFFB002003F0DCFB84
:104280000D2003F0D9FB002003F0D6FB112003F032
:10429000D3FB002003F0D0FB192003F0CDFB00205E
:1042A00003F0CAFB212003F0C7FB002003F0C4FB8E
:1042B0002D2003F0C1FB002003F0BEFB3D2003F0E6
:1042C000BBFB002003F0B8FB5D2003F0B5FB002032
:1042D00003F0B2FB5D2003F0AFFB002003F0ACFB6A
:1042E000B12003F0AFFB802003F0A6FB002003F019
:1042F000A3FB8B2003F0A0FB002003F09DFB962086
:1043000003F09AFB002003F097FBB22003F09AFB26
:10431000002003F091FB002003F08EFB022003F04D
:104320008BFB002003F088FB032003F085FB0020BB
:1043300003F082FBB32003F085FB002003F07CFB3D
:10434000002003F079FB002003F076FB002003F04F
:1043500073FB002003F070FB002003F06DFB0020D6
:1043600003F06AFB002003F067FB002003F064FB0E
:10437000002003F061FB002003F05EFB002003F04F
:104380005BFB002003F058FB002003F055FB0020EE
:1043900003F052FB002003F04FFB002003F04CFB26
:1043A000002003F049FB002003F046FB002003F04F
:1043B00043FB002003F040FB002003F03DFB002006
:1043C00003F03AFB002003F037FBB42003F03AFB84
:1043D0008B2003F031FB002003F02EFB962003F02E
:1043E0002BFB002003F028FBA12003F025FB00207D
:1043F00003F022FBB52003F025FB022003F01CFB99
:10440000002003F019FB032003F016FB002003F04B
:1044100013FB042003F010FB002003F00DFBB6207B
:1044200003F010FB002003F007FB002003F004FB67
:10443000B72003F007FB002003F0FEFA002003F092
:10444000FBFA3F2003F0F8FA002003F0F5FA5E20B3
:1044500003F0F2FA002003F0EFFA642003F0ECFA24
:10446000002003F0E9FA8C2003F0E6FA002003F0C4
:10447000E3FAAC2003F0E0FA002003F0DDFADC20E0
:1044800003F0DAFA002001E0C805002003F0D4FAB6
:10449000702003F0D1FA002003F0CEFA902003F050
:1044A000CBFA002003F0C8FAEB2003F0C5FA002095
:1044B00003F0C2FADC2003F0BFFA002003F0BCFADC
:1044C000B82003F0BFFA002003F0B6FA002003F092
:1044D000B3FA002003F0B0FA002003F0ADFA002098
:1044E00003F0AAFA002003F0A7FA002003F0A4FAD0
:1044F000002003F0A1FABA2003F0A4FA242003F06C
:104500009BFA002003F098FA002003F095FA0020AF
:1045100003F092FAC12003F095FA202003F08CFA00
:10452000002003F089FA542003F086FA002003F0FB
:1045300083FAFF2003F080FA002003F07DFAC22006
:1045400003F080FA0A2003F077FA002003F074FAEF
:10455000042003F071FA002003F06EFAC32003F088
:1045600071FA3C2003F068FA002003F065FA3A2063
:1045700003F062FA002003F05FFA392003F05CFADE
:10458000002003F059FA372003F056FA002003F018
:1045900053FA3C2003F050FA002003F04DFA362085
:1045A00003F04AFA002003F047FA322003F044FAFD
:1045B000002003F041FA2F2003F03EFA002003F020
:1045C0003BFA2C2003F038FA002003F035FA2920BA
:1045D00003F032FA002003F02FFA262003F02CFA21
:1045E000002003F029FA242003F026FA002003F02B
:1045F00023FA242003F020FA002003F01DFA2320E0
:1046000003F01AFA002003F017FA3C2003F014FA22
:10461000002003F011FA362003F00EFA002003F018
:104620000BFA322003F008FA002003F005FA2F20DD
:1046300003F002FA002003F0FFF92C2003F0FCF94C
:10464000002003F0F9F9292003F0F6F9002003F027
:10465000F3F9262003F0F0F9002003F0EDF924200F
:1046600003F0EAF9002003F0E7F9242003F0E4F96D
:10467000002003F0E1F9232003F0DEF9002003F02D
:10468000DBF9C42003F0DEF9622003F0D5F9002045
:1046900003F0D2F9052003F0CFF9002003F0CCF9A4
:1046A000842003F0C9F9002003F0C6F9F02003F0DC
:1046B000C3F9002003F0C0F9182003F0BDF9002071
:1046C00003F0BAF9A42003F0B7F9002003F0B4F91D
:1046D000182003F0B1F9002003F0AEF9502003F0E8
:1046E000ABF9002003F0A8F90C2003F0A5F9002095
:1046F00003F0A2F9172003F09FF9002003F09CF9C2
:10470000952003F099F9002003F096F9F32003F0C7
:1047100093F9002003F090F9E62003F08DF90020D2
:1047200003F08AF9C52003F08DF9322003F084F9F3
:10473000002003F081F9442003F07EF9002003F00B
:104740007BF9652003F078F9002003F075F97620F5
:1047500003F072F9002003F06FF9882003F06CF980
:10476000002003F069F9C62003F06CF9202003F063
:1047700063F9002003F060F9172003F05DF90020D1
:1047800003F05AF9012003F057F9002003F054F91F
:10479000C72003F057F9002003F04EF9002003F082
:1047A0004BF9002003F048F9002003F045F9C82038
:1047B00003F048F9002003F03FF9002003F03CF932
:1047C000002003F039F9002003F036F9C92003F086
:1047D00039F9002003F030F9002003F02DF9002012
:1047E00003F02AF9002003F027F9002003F024F950
:1047F000002003F021F9002003F01EF9002003F04F
:104800001BF9002003F018F9002003F015F900202F
:1048100003F012F9002003F00FF9002003F00CF967
:10482000002003F009F9002003F006F9002003F04E
:1048300003F9E02003F006F9162003F0FDF800204C
:1048400003F0FAF81C2003F0F7F8002003F0F4F866
:10485000212003F0F1F8002003F0EEF8362003F0F9
:10486000EBF8002003F0E8F8462003F0E5F800201C
:1048700003F0E2F8522003F0DFF8002003F0DCF848
:10488000642003F0D9F8002003F0D6F87A2003F072
:10489000D3F8002003F0D0F88B2003F0CDF80020EF
:1048A00003F0CAF8992003F0C7F8002003F0C4F819
:1048B000A82003F0C1F8002003F0BEF8B92003F0EF
:1048C000BBF8002003F0B8F8C42003F0B5F80020CE
:1048D00003F0B2F8CA2003F0AFF8002003F0ACF800
:1048E000D22003F0A9F8002003F0A6F8D92003F0A5
:1048F000A3F8002003F0A0F8E02003F09DF80020CA
:1049000003F09AF8F32003F097F8002003F094F8EE
:10491000E12003F097F8162003F08EF8002003F052
:104920008BF81C2003F088F8002003F085F8222083
:1049300003F082F8002003F07FF8362003F07CF8C3
:10494000002003F079F8452003F076F8002003F00A
:1049500073F8522003F070F8002003F06DF8642023
:1049600003F06AF8002003F067F87A2003F064F897
:10497000002003F061F88B2003F05EF8002003F0C4
:104980005BF8992003F058F8002003F055F8A820B0
:1049900003F052F8002003F04FF8B92003F04CF870
:1049A000002003F049F8C42003F046F8002003F08B
:1049B00043F8CA2003F040F8002003F03DF8D2206D
:1049C00003F03AF8002003F037F8D82003F034F869
:1049D000002003F031F8E02003F02EF8002003F06F
:1049E0002BF8F32003F028F8002003F025F8E2204C
:1049F00003F028F8052003F01FF8002003F01CF84E
:104A00000B2003F019F8002003F016F81B2003F028
:104A100013F8002003F010F8342003F00DF8002004
:104A200003F00AF8442003F007F8002003F004F82C
:104A30004F2003F001F8002002F0FEFF612002F099
:104A4000FBFF002002F0F8FF792002F0F5FF0020C4
:104A500002F0F2FF882002F0EFFF002002F0ECFFEE
:104A6000972002F0E9FF002002F0E6FFA62002F006
:104A7000E3FF002002F0E0FFB72002F0DDFF00209E
:104A800002F0DAFFC22002F0D7FF002002F0D4FFCC
:104A9000C72002F0D1FF002002F0CEFFD12002F0AB
:104AA000CBFF002002F0C8FFD62002F0C5FF002097
:104AB00002F0C2FFDD2002F0BFFF002002F0BCFFC9
:104AC000F32002F0B9FF002002F0B6FFE32002F06D
:104AD000B9FF052002F0B0FF002002F0ADFF0A2070
:104AE00002F0AAFF002002F0A7FF1C2002F0A4FFA2
:104AF000002002F0A1FF332002F09EFF002002F010
:104B00009BFF442002F098FF002002F095FF502008
:104B100002F092FF002002F08FFF622002F08CFF73
:104B2000002002F089FF782002F086FF002002F0CA
:104B300083FF882002F080FF002002F07DFF972095
:104B400002F07AFF002002F077FFA62002F074FF47
:104B5000002002F071FFB72002F06EFF002002F08B
:104B60006BFFC22002F068FF002002F065FFC72043
:104B700002F062FF002002F05FFFD12002F05CFF34
:104B8000002002F059FFD52002F056FF002002F06D
:104B900053FFDD2002F050FF002002F04DFFF32014
:104BA00002F04AFF002002F047FFE42002F04AFF33
:104BB000012002F041FF002002F03EFF012002F040
:104BC0003BFF002002F038FF022002F035FF0020FA
:104BD00002F032FF2A2002F02FFF002002F02CFF0B
:104BE0003C2002F029FF002002F026FF4B2002F0BB
:104BF00023FF002002F020FF5D2002F01DFF0020B7
:104C000002F01AFF742002F017FF002002F014FFD8
:104C1000842002F011FF002002F00EFF932002F02A
:104C20000BFF002002F008FFA22002F005FF002089
:104C300002F002FFB32002F0FFFE002002F0FCFEB3
:104C4000BE2002F0F9FE002002F0F6FEC42002F0C1
:104C5000F3FE002002F0F0FECD2002F0EDFE002079
:104C600002F0EAFED32002F0E7FE002002F0E4FEAC
:104C7000DD2002F0E1FE002002F0DEFEF32002F073
:104C8000DBFE002002F0D8FEE52002F0DBFE002073
:104C900002F0D2FE002002F0CFFE002002F0CCFE97
:104CA000002002F0C9FE022002F0C6FE002002F041
:104CB000C3FE292002F0C0FE002002F0BDFE3C2011
:104CC00002F0BAFE002002F0B7FE4B2002F0B4FE64
:104CD000002002F0B1FE5D2002F0AEFE002002F0E6
:104CE000ABFE742002F0A8FE002002F0A5FE842096
:104CF00002F0A2FE002002F09FFE932002F09CFE34
:104D0000002002F099FEA22002F096FE002002F0A0
:104D100093FEB32002F090FE002002F08DFEBE2034
:104D200002F08AFE002002F087FEC42002F084FE1A
:104D3000002002F081FECD2002F07EFE002002F075
:104D40007BFED32002F078FE002002F075FEDC200E
:104D500002F072FE002002F06FFEF32002F06CFE03
:104D6000002002F069FEE62002F06CFE112002F045
:104D700063FE002002F060FE342002F05DFE0020A1
:104D800002F05AFE562002F057FE002002F054FEB8
:104D9000762002F051FE002002F04EFE772002F055
:104DA0004BFE002002F048FE662002F045FE002087
:104DB00002F042FE882002F03FFE002002F03CFE9E
:104DC000992002F039FE002002F036FEBB2002F0EE
:104DD00033FE002002F030FE992002F02DFE00206C
:104DE00002F02AFE662002F027FE002002F024FED8
:104DF000552002F021FE002002F01EFE552002F098
:104E00001BFE002002F018FE452002F015FE0020D7
:104E100002F012FE432002F00FFE002002F00CFE12
:104E2000442002F009FE002002F006FEE72002F016
:104E300009FE322002F000FE002002F0FDFD5520A8
:104E400002F0FAFD002002F0F7FD762002F0F4FDFA
:104E5000002002F0F1FD662002F0EEFD002002F0DD
:104E6000EBFD672002F0E8FD002002F0E5FD672081
:104E700002F0E2FD002002F0DFFD872002F0DCFD01
:104E8000002002F0D9FD992002F0D6FD002002F0AA
:104E9000D3FDBB2002F0D0FD002002F0CDFD992013
:104EA00002F0CAFD002002F0C7FD772002F0C4FD29
:104EB000002002F0C1FD442002F0BEFD002002F0FF
:104EC000BBFD562002F0B8FD002002F0B5FD232006
:104ED00002F0B2FD002002F0AFFD332002F0ACFD85
:104EE000002002F0A9FD452002F0A6FD002002F0FE
:104EF000A3FDE82002F0A6FD002002F09DFD0020A9
:104F000002F09AFD992002F097FD002002F094FD36
:104F1000872002F091FD002002F08EFD882002F033
:104F20008BFD002002F088FD772002F085FD002037
:104F300002F082FD662002F07FFD002002F07CFD81
:104F4000882002F079FD002002F076FDAA2002F010
:104F500073FD002002F070FDBB2002F06DFD00200B
:104F600002F06AFD992002F067FD002002F064FD66
:104F7000662002F061FD002002F05EFD552002F087
:104F80005BFD002002F058FD552002F055FD002089
:104F900002F052FD442002F04FFD002002F04CFDD3
:104FA000442002F049FD002002F046FD552002F0A9
:104FB00043FD002002F040FDE92002F043FDAA205D
:104FC00002F03AFD002002F037FD002002F034FD2F
:104FD000002002F031FD002002F034FDAA2002F092
:104FE0002BFDCF2002F02EFD002002F025FD002039
:104FF00002F022FD002002F01FFD002002F01CFD47
:10500000002002F019FD002002F016FD002002F041
:1050100013FD002002F010FD002002F00DFD002025
:1050200002F00AFD002002F007FD002002F004FD5E
:10503000002002F001FD002002F0FEFC002002F042
:10504000FBFC002002F0F8FC002002F0F5FCF02050
:1050500002F0F8FC002002F0EFFC502002F0ECFC23
:10506000002002F0E9FC002002F0E6FC002002F043
:10507000E3FCF32002F0E6FC002002F0DDFCF92066
:1050800002F0E0FC062002F0D7FC102002F0D4FC75
:10509000292002F0D1FC002002F0CEFC3A2002F0E0
:1050A000D1FC552002F0C8FC112002F0CBFC64209A
:1050B00005F098FC292002F0C5FC352002F0C2FC66
:1050C000002002F0B9FC512002F0BCFCFF2002F0ED
:1050D000B3FC532002F0B6FC2C2002F0ADFC5520AE
:1050E00002F0B0FC822002F0A7FC2C2002F0AAFC07
:1050F00002F0E9B8FE48808845F2105188427DD11F
:1051000055214FF4704002F0ADFCAA214FF201008E
:1051100002F0A8FC52214FF2020002F0A3FC082189
:105120004FF2030002F09EFC01214FF2040002F056
:1051300099FC0D214FF4304002F094FC0D214BF20C
:10514000010002F08FFC0D214BF2020002F08AFCFC
:1051500034214FF4364002F085FC34214BF20160DB
:1051600002F080FC34214BF2026002F07BFC0D2146
:105170004FF4314002F076FC0D214BF2011002F0A9
:1051800071FC0D214BF2021002F06CFC34214FF443
:10519000374002F067FC34214BF2017002F062FCF0
:1051A00034214BF2027002F05DFC00214FF43240DA
:1051B00002F058FC00214BF2012002F053FC0021C8
:1051C0004BF2022002F04EFC24214FF4384002F052
:1051D00049FC24214BF6010002F044FC24214BF64B
:1051E000020002F03FFC01214FF43F4002F03AFC84
:1051F0000F214FF4334002F035FC00E0FDE30F21B6
:105200004BF2013002F02EFC0F214BF2023002F083
:1052100029FC34214FF4394002F024FC34214BF6B0
:10522000011002F01FFC34214BF6021002F01AFCB0
:1052300008214FF4354002F015FC08214BF20150D3
:1052400002F010FC08214BF2025002F00BFC03218B
:105250004FF4424002F006FC24214FF43A4002F0A1
:1052600001FC24214BF6012002F0FCFB24214BF62B
:10527000022002F0F7FB00214FF43C4002F0F2FB69
:1052800078214BF6014002F0EDFB00214BF6024085
:1052900002F0E8FB00214FF43D4002F0E3FB7821EF
:1052A0004BF6015002F0DEFB00214BF6025002F0FB
:1052B000D9FB00214FF43E4002F0D4FB64214BF6B1
:1052C000016002F0CFFB00214FF4514002F0CAFB15
:1052D00033214DF2011002F0C5FB00214DF2021006
:1052E00002F0C0FB34214DF2031002F0BBFB0021A1
:1052F0004DF2041002F0B6FB3A214DF2051002F017
:10530000B1FB00214DF2061002F0ACFB4A214DF238
:10531000071002F0A7FB00214DF2081002F0A2FBDB
:105320005C214DF2091002F09DFB00214DF20A10A4
:1053300002F098FB81214DF20B1002F093FB00214B
:105340004DF20C1002F08EFBA6214DF20D1002F072
:1053500089FB00214DF20E1002F084FBE5214DF295
:105360000F1002F07FFB01214DF2101002F07AFBCA
:1053700013214DF2111002F075FB01214DF21210B4
:1053800002F070FB54214DF2131002F06BFB01216F
:105390004DF2141002F066FB82214DF2151002F05E
:1053A00061FB01214DF2161002F05CFBCA214DF2A7
:1053B000171002F057FB02214DF2181002F052FBB9
:1053C00000214DF2191002F04DFB02214DF21A108E
:1053D00002F048FB01214DF21B1002F043FB0221B9
:1053E0004DF21C1002F03EFB34214DF21D1002F074
:1053F00039FB02214DF21E1002F034FB67214DF201
:105400001F1002F02FFB02214DF2201002F02AFBA8
:1054100084214DF2211002F025FB02214DF22210D1
:1054200002F020FBA4214DF2231002F01BFB02210D
:105430004DF2241002F016FBB7214DF2251002F0B8
:1054400011FB02214DF2261002F00CFBCF214DF290
:10545000271002F007FB02214DF2281002F002FB98
:10546000DE214DF2291002F0FDFA02214DF22A1040
:1054700002F0F8FAF2214DF22B1002F0F3FA0221B9
:105480004DF22C1002F0EEFAFE214DF22D1002F03A
:10549000E9FA03214DF22E1002F0E4FA10214DF248
:1054A0002F1002F0DFFA03214DF2301002F0DAFA89
:1054B00033214DF2311002F0D5FA03214DF23210B2
:1054C00002F0D0FA6D214DF2331002F0CBFA002138
:1054D0004FF4524002F0C6FA33214DF2012002F09F
:1054E000C1FA00214DF2022002F0BCFA342101E0A1
:1054F000C80500204DF2032002F0B4FA00214DF25D
:10550000042002F0AFFA3A214DF2052002F0AAFA87
:1055100000214DF2062002F0A5FA4A214DF20720A3
:1055200002F0A0FA00214DF2082002F09BFA5C2163
:105530004DF2092002F096FA00214DF20A2002F005
:1055400091FA81214DF20B2002F08CFA00214DF2EC
:105550000C2002F087FAA6214DF20D2002F082FA0B
:1055600000214DF20E2002F07DFAE5214DF20F20D0
:1055700002F078FA01214DF2102002F073FA1321A3
:105580004DF2112002F06EFA01214DF2122002F0CC
:1055900069FA54214DF2132002F064FA01214DF210
:1055A000142002F05FFA82214DF2152002F05AFA1F
:1055B00001214DF2162002F055FACA214DF21720B2
:1055C00002F050FA02214DF2182002F04BFA0021AD
:1055D0004DF2192002F046FA02214DF21A2002F093
:1055E00041FA01214DF21B2002F03CFA02214DF25A
:1055F0001C2002F037FA34214DF21D2002F032FA5D
:1056000002214DF21E2002F02DFA67214DF21F20DB
:1056100002F028FA02214DF2202002F023FA842120
:105620004DF2212002F01EFA02214DF2222002F05A
:1056300019FAA4214DF2232002F014FA02214DF2AE
:10564000242002F00FFAB7214DF2252002F00AFAC9
:1056500002214DF2262002F005FACF214DF227203B
:1056600002F000FA02214DF2282002F0FBF9DE21BF
:105670004DF2292002F0F6F902214DF22A2002F023
:10568000F1F9F2214DF22B2002F0ECF902214DF25A
:105690002C2002F0E7F9FE214DF22D2002F0E2F974
:1056A00003214DF22E2002F0DDF910214DF22F20C2
:1056B00002F0D8F903214DF2302002F0D3F9332162
:1056C0004DF2312002F0CEF903214DF2322002F0EA
:1056D000C9F96D214DF2332002F0C4F900214FF4D5
:1056E000534002F0BFF933214DF2013002F0BAF914
:1056F00000214DF2023002F0B5F934214DF20330B1
:1057000002F0B0F900214DF2043002F0ABF93A2179
:105710004DF2053002F0A6F900214DF2063002F0FC
:10572000A1F94A214DF2073002F09CF900214DF217
:10573000083002F097F95C214DF2093002F092F93D
:1057400000214DF20A3002F08DF981214DF20B302B
:1057500002F088F900214DF20C3002F083F9A62105
:105760004DF20D3002F07EF900214DF20E3002F0C4
:1057700079F9E5214DF20F3002F074F901214DF273
:10578000103002F06FF913214DF2113002F06AF976
:1057900001214DF2123002F065F954214DF213301F
:1057A00002F060F901214DF2143002F05BF9822120
:1057B0004DF2153002F056F901214DF2163002F08B
:1057C00051F9CA214DF2173002F04CF902214DF285
:1057D000183002F047F900214DF2193002F042F979
:1057E00002214DF21A3002F03DF901214DF21B3039
:1057F00002F038F902214DF21C3002F033F9342165
:105800004DF21D3002F02EF902214DF21E3002F051
:1058100029F967214DF21F3002F024F902214DF2DF
:10582000203002F01FF984214DF2213002F01AF9E4
:1058300002214DF2223002F015F9A4214DF223305D
:1058400002F010F902214DF2243002F00BF9B721D9
:105850004DF2253002F006F902214DF2263002F019
:1058600001F9CF214DF2273002F0FCF802214DF270
:10587000283002F0F7F8DE214DF2293002F0F2F87C
:1058800002214DF22A3002F0EDF8F2214DF22B30D8
:1058900002F0E8F802214DF22C3002F0E3F8FE218C
:1058A0004DF22D3002F0DEF803214DF22E3002F0E1
:1058B000D9F810214DF22F3002F0D4F803214DF227
:1058C000303002F0CFF833214DF2313002F0CAF817
:1058D00003214DF2323002F0C5F86D214DF2333024
:1058E00002F0C0F800214FF4544002F0BBF833211D
:1058F0004DF2014002F0B6F800214DF2024002F0F4
:10590000B1F834214DF2034002F0ACF800214DF221
:10591000044002F0A7F83A214DF2054002F0A2F847
:1059200000214DF2064002F09DF84A214DF2074059
:1059300002F098F800214DF2084002F093F85C2143
:105940004DF2094002F08EF800214DF20A4002F0BB
:1059500089F881214DF20B4002F084F800214DF2CC
:105960000C4002F07FF8A6214DF20D4002F07AF8CB
:1059700000214DF20E4002F075F8E5214DF20F4086
:1059800002F070F801214DF2104002F06BF8132183
:105990004DF2114002F066F801214DF2124002F082
:1059A00061F854214DF2134002F05CF801214DF2F0
:1059B000144002F057F882214DF2154002F052F8DF
:1059C00001214DF2164002F04DF8CA214DF2174068
:1059D00002F048F802214DF2184002F043F800218D
:1059E0004DF2194002F03EF802214DF21A4002F049
:1059F00039F801214DF21B4000E006E302F032F8D5
:105A000002214DF21C4002F02DF834214DF21D40D0
:105A100002F028F802214DF21E4002F023F867211F
:105A20004DF21F4002F01EF802214DF2204002F01C
:105A300019F884214DF2214002F014F802214DF2B0
:105A4000224002F00FF8A4214DF2234002F00AF8A0
:105A500002214DF2244002F005F8B7214DF2254015
:105A600002F000F802214DF2264001F0FBFFCF21A9
:105A70004DF2274001F0F6FF02214DF2284001F0DF
:105A8000F1FFDE214DF2294001F0ECFF02214DF241
:105A90002A4001F0E7FFF2214DF22B4001F0E2FF36
:105AA00002214DF22C4001F0DDFFFE214DF22D4090
:105AB00001F0D8FF03214DF22E4001F0D3FF102159
:105AC0004DF22F4001F0CEFF03214DF2304001F0A6
:105AD000C9FF33214DF2314001F0C4FF03214DF2E3
